0020500117CRC                                                                                                                                                                                           
0100150000009000042901500090000429 HKD01C502  06                                                                                                                                                        
0100150000009000169701500090001697 HKD01C502  06                                                                                                                                                        
0100150000009000322301500090003223 HKD01C502  06                                                                                                                                                        
0100150000009000804701500090008047 HKD01C502  06                                                                                                                                                        
0100150000009001039401500090010394 HKD01C502  06DL1                                                                                      2043-03-31 06                                                  
0100150000009001039401500090010394 HKD01C502  06DL2                                                                                      2043-03-31 05                                                  
0100150000009001045901500090010459 HKD01C502  06                                                                                                                                                        
0100150000009001087401500090010874 HKD0101431 10                                                                                                                                                        
0100150000009001135801500090011358 HKD01D1001 14TLX                                                                                      2011-08-16                                                     
0100150000009001135801500090011358 HKD01D1001 14FL                                                                                       2011-08-16                                                     
0100150000009001306701500090013067 HKD01F1001 05                                                                                                                                                        
0100150000009001409801500090014098 HKD0101431 10                                                                                                                                                        
01001500009000014185015000900014185HKD01BB307 17                                                                                                                                                        
01001500009000014232015000900014232HKD0101431 10                                                                                                                                                        
01001500009000014258015000900014258HKD0101431 10                                                                                                                                                        
01001500009000014266015000900014266HKD0101431 10                                                                                                                                                        
01001500009000014274015000900014274HKD01D3001 11FL                                                                                       2009-10-30                                                     
01001500009000014282015000900014282HKD01D3001 11FL                                                                                       2009-11-06                                                     
01001500009000014313015000900014313HKD0101431 10                                                                                                                                                        
01001500009000014339015000900014339HKD0101431 10                                                                                                                                                        
01001500009000014347015000900014347HKD0101431 10                                                                                                                                                        
01001500009000014363015000900014363HKD01BB103 16                                                                                                                                                        
01001500009000014397015000900014397HKD0101431 10                                                                                                                                                        
01001500009000014410015000900014410HKD0101431 06                                                                                                                                                        
01001500009000014428015000900014428HKD0101431 06                                                                                                                                                        
01001500009000014436015000900014436HKD0101431 06                                                                                                                                                        
01001500009000014444015000900014444HKD0101431 06                                                                                                                                                        
01001500009000014452015000900014452HKD01C601  12DL1                                                                                      2010-01-25                                                     
01001500009000014460015000900014460HKD0101431 10                                                                                                                                                        
01001500009000014486015000900014486HKD0101431 10                                                                                                                                                        
01001500009000014494015000900014494HKD01S9002 16BG                                                                                       2010-03-08                                                     
01001500009000014509015000900014509HKD0101431 10                                                                                                                                                        
01001500009000014533015000900014533HKD0101431 10                                                                                                                                                        
01001500009000014541015000900014541HKD0101431 10                                                                                                                                                        
01001500009000014559015000900014559HKD01BA404 06                                                                                                                                                        
01001500009000014567015000900014567HKD0101431 10                                                                                                                                                        
01001500009000014591015000900014591HKD01S2001 06BG                                                                                       2010-05-04                                                     
01001500009000014606015000900014606HKD0101431 10                                                                                                                                                        
01001500009000014614015000900014614HKD0101431 10                                                                                                                                                        
01001500009000014622015000900014622HKD0101431 10                                                                                                                                                        
01001500009000014630015000900014630HKD0101431 10                                                                                                                                                        
01001500009000014648015000900014648HKD0101431 06                                                                                                                                                        
01001500009000014656015000900014656HKD0101431 10                                                                                                                                                        
01001500009000014680015000900014680HKD0101431 10                                                                                                                                                        
01001500009000014698015000900014698HKD0101431 10                                                                                                                                                        
01001500009000014711015000900014711HKD01S2001 06BG                                                                                       2010-07-21                                                     
01001500009000014729015000900014729HKD01BB103 06BG                                                                                       2010-07-23                                                     
01001500009000014737015000900014737HKD0101431 10                                                                                                                                                        
01001500009000014753015000900014753HKD0101431 10                                                                                                                                                        
01001500009000014761015000900014761HKD0101431 10                                                                                                                                                        
01001500009000014800015000900014800HKD0101431 10                                                                                                                                                        
01001500009000014818015000900014818HKD01S9001 06DL1                                                                                      2010-10-27                                                     
01001500009000014818015000900014818HKD01S9001 06SL1                                                                                      2010-10-27                                                     
01001500009000014826015000900014826HKD01S9001 06DL1                                                                                      2010-10-27                                                     
01001500009000014826015000900014826HKD01S9001 06SL1                                                                                      2010-10-27                                                     
01001500009000014850015000900014850HKD01C602  06DL1                                                                                      2010-12-02                                                     
01001500009000014850015000900014850HKD01C602  06LC+TR+DP                                                                                 2010-12-02                                                     
01001500009000014850015000900014850HKD01C602  06DG                                                                                       2010-12-02                                                     
01001500009000014850015000900014850HKD01C602  06BP                                                                                       2010-12-02                                                     
01001500009000014868015000900014868HKD01C602  06DL1                                                                                      2010-12-02                                                     
01001500009000014868015000900014868HKD01C602  06LC+TR+DP                                                                                 2010-12-02                                                     
01001500009000014868015000900014868HKD01C602  06DG                                                                                       2010-12-02                                                     
01001500009000014868015000900014868HKD01C602  06BP                                                                                       2010-12-02                                                     
01001500009000014876015000900014876HKD01C602  06DL1                                                                                      2010-12-02                                                     
01001500009000014876015000900014876HKD01C602  06LC+TR+DP                                                                                 2010-12-02                                                     
01001500009000014876015000900014876HKD01C602  06DG                                                                                       2010-12-02                                                     
01001500009000014876015000900014876HKD01C602  06BP                                                                                       2010-12-02                                                     
01001500009000014892015000900014892HKD0101431 10                                                                                                                                                        
01001500009000014915015000900014915HKD01S3001 06                                                                                                                                                        
01001500009000014923015000900014923HKD0101431 06                                                                                                                                                        
01001500009000014931015000900014931HKD0101431 10                                                                                                                                                        
01001500009000014949015000900014949HKD01S2001 06BG                                                                                       2011-01-28                                                     
01001500009000014957015000900014957HKD0101431 10                                                                                                                                                        
01001500009000014965015000900014965HKD01S1010 06                                                                                                                                                        
01001500009000014981015000900014981HKD01S2001 06BG                                                                                       2011-01-27                                                     
01001500009000014999015000900014999HKD01S9002 05BG                                                                                       2011-01-31                                                     
01001500009000015000015000900015000HKD01S2001 06BG                                                                                       2011-01-31                                                     
01001500009000015018015000900015018HKD01S9002 06BG                                                                                       2011-02-08                                                     
01001500009000015026015000900015026HKD01S9002 17BG                                                                                       2011-02-18                                                     
01001500009000015034015000900015034HKD01BA202 06                                                                                                                                                        
01001500009000015042015000900015042HKD01BA202 06                                                                                                                                                        
01001500009000015050015000900015050HKD01BA202 06                                                                                                                                                        
01001500009000015068015000900015068HKD01BA202 06                                                                                                                                                        
01001500009000015076015000900015076HKD01BA202 06                                                                                                                                                        
01001500009000015084015000900015084HKD01BA202 06                                                                                                                                                        
01001500009000015092015000900015092HKD01BA202 06                                                                                                                                                        
01001500009000015107015000900015107HKD01BA202 06                                                                                                                                                        
01001500009000015115015000900015115HKD01BA202 06                                                                                                                                                        
01001500009000015123015000900015123HKD01BA202 06                                                                                                                                                        
01001500009000015131015000900015131HKD01S3001 06                                                                                                                                                        
01001500009000015149015000900015149HKD01BA202 06                                                                                                                                                        
01001500009000015157015000900015157HKD01S1001 05                                                                                                                                                        
01001500009000015173015000900015173HKD0101431 10                                                                                                                                                        
01001500009000015220015000900015220HKD01S1001 06BG                                                                                       2011-03-25                                                     
01001500009000015238015000900015238HKD01S1001 06BG                                                                                       2011-03-25                                                     
01001500009000015246015000900015246HKD0101423 06BG                                                                                       2011-03-25                                                     
01001500009000015262015000900015262HKD01S9002 10BG                                                                                       2011-03-25                                                     
01001500009000015270015000900015270HKD01S1001 06BG                                                                                       2011-03-25                                                     
01001500009000015343015000900015343HKD0101431 10                                                                                                                                                        
01001500009000015351015000900015351HKD0101431 10                                                                                                                                                        
01001500009000015377015000900015377HKD0101431 10                                                                                                                                                        
01001500009000015385015000900015385HKD0101431 10                                                                                                                                                        
01001500009000015393015000900015393HKD0101431 10                                                                                                                                                        
01001500009000015408015000900015408HKD01S9002 16BG                                                                                       2011-10-11                                                     
01001500009000015521015000900015521HKD0101431 10FL                                                                                       2012-01-09                                                     
01001500009000015539015000900015539HKD0101431 06FL                                                                                       2014-06-05                                                     
01001500009000015547015000900015547HKD0101431 10FL                                                                                       2014-06-05                                                     
01001500009000015555015000900015555HKD01F1001 10TLX                                                                                      2014-07-07                                                     
01001500009000015555015000900015555HKD01F1001 10FL                                                                                       2014-07-07                                                     
01001500009000015660015000900015660HKD01RB122 05LC+TR                                                                                    2018-07-27                                                     
01001500009000015660015000900015660HKD01RB122 05TLX                                                                                      2018-07-27                                                     
01001500009000015660015000900015660HKD01RB122 05FL                                                                                       2018-07-27                                                     
01001500009000015660015000900015660HKD01RB122 05DL1                                                                                      2018-07-27                                                     
01001500009000015660015000900015660HKD01RB122 05DL2                                                                                      2018-07-27                                                     
01001500009000015660015000900015660HKD01RB122 05BP                                                                                       2018-07-27                                                     
01001500009000015660015000900015660HKD01RB122 05DG                                                                                       2018-07-27                                                     
01001500009000015709015000900015709HKD01BB101 06                                                                                                                                                        
01001500009000015717015000900015717HKD01BB101 06                                                                                                                                                        
01001500009000015725015000900015725HKD01BB101 06                                                                                                                                                        
01001500009000015775015000900015775HKD0101431 10FL                                                                                       2021-07-29                                                     
01001500009000016268015000900016268HKD01S2003 06FL                                                                                       2038-04-28                                                     
01001500009000016399015000900016399HKD0101431 10                                                                                                                                                        
01001500009000016713015000900016713HKD01C502  06                                                                                                                                                        
01001500009000016721015000900016721HKD01C502  06                                                                                                                                                        
01001500009000016739015000900016739HKD01C502  06                                                                                                                                                        
01001500009000016747015000900016747HKD01C502  06                                                                                                                                                        
01001500009000016755015000900016755HKD01C502  06                                                                                                                                                        
01001500009000016763015000900016763HKD01C502  06                                                                                                                                                        
01001500009000016771015000900016771HKD01C502  06                                                                                                                                                        
01001500009000016789015000900016789HKD01C502  06                                                                                                                                                        
01001500009000016797015000900016797HKD01C502  06                                                                                                                                                        
01001500009000016802015000900016802HKD01C502  06                                                                                                                                                        
01001500009000016810015000900016810HKD01C502  06                                                                                                                                                        
01001500009000016828015000900016828HKD01C502  06                                                                                                                                                        
01001500009000016836015000900016836HKD01C502  06                                                                                                                                                        
01001500009000016844015000900016844HKD01C502  06                                                                                                                                                        
01001500009000016852015000900016852HKD01C502  06FL                                                                                       2028-11-01                                                     
01001500009000016852015000900016852HKD01C502  06TLX                                                                                      2028-11-01                                                     
01001500009000016878015000900016878HKD01C502  06                                                                                                                                                        
01001500009000016886015000900016886HKD01C502  06                                                                                                                                                        
01001500009000016894015000900016894HKD01C502  06                                                                                                                                                        
01001500009000016909015000900016909HKD01C502  06                                                                                                                                                        
01001500009000016917015000900016917HKD01C502  05FL                                                                                       2036-01-08                                                     
01001500009000016925015000900016925HKD01C502  06                                                                                                                                                        
01001500009000016933015000900016933HKD01C502  06                                                                                                                                                        
01001500009000016941015000900016941HKD01BA305 06                                                                                                                                                        
01001500009000016959015000900016959HKD01C409  05                                                                                                                                                        
01001500009000016967015000900016967HKD01D4003 05                                                                                                                                                        
01001500009000016975015000900016975HKD01RB124 06                                                                                                                                                        
01001500009000016983015000900016983HKD01RB124 06                                                                                                                                                        
01001500009000016991015000900016991HKD01S1001 06                                                                                                                                                        
01001500009000017010015000900017010HKD01RB125 06                                                                                                                                                        
01001500009000017044015000900017044HKD01RB114 06                                                                                                                                                        
01001500009000017060015000900017060HKD01A325  06                                                                                                                                                        
01001500009000017094015000900017094HKD01C502  06LC+LCB+TR+IFL                                                                            2035-11-22                                                     
01001500009000017094015000900017094HKD01C502  06BP                                                                                       2035-11-22                                                     
01001500009000017094015000900017094HKD01C502  06DL1                                                                                      2035-11-22                                                     
01001500009000017345015000900017345HKD01S1005 06                                                                                                                                                        
01001500009000017418015000900017418HKD01BA304 06LC                                                                                       2023-09-16                                                     
01001500009000017620015000900017620HKD01S1001 06BG                                                                                       2024-07-03                                                     
01001500009000017638015000900017638HKD01S1001 06BG                                                                                       2024-07-03                                                     
01001500009000017701015000900017701HKD01A123  06LC+TR                                                                                    2038-04-09                                                     
01001500009000017858015000900017858HKD01F1009 06                                                                                                                                                        
01001500009000017939015000900017939HKD0101431 06                                                                                                                                                        
01001500009000017997015000900017997HKD01C409  06                                                                                                                                                        
01001500009000019884015000900019884HKD01F1002 06FL                                                                                       2038-11-10                                                     
01001500009000019884015000900019884HKD01F1002 06TLX                                                                                      2038-11-10                                                     
01001500009000019892015000900019892HKD0101431 06FL                                                                                       2038-11-10                                                     
01001500009000019892015000900019892HKD0101431 06TLX                                                                                      2038-11-10                                                     
01001500009000019907015000900019907HKD0101431 06FL                                                                                       2038-11-10                                                     
01001500009000019907015000900019907HKD0101431 06TLX                                                                                      2038-11-10                                                     
01001500009000019915015000900019915HKD0101431 06FL                                                                                       2038-11-10                                                     
01001500009000019915015000900019915HKD0101431 06TLX                                                                                      2038-11-10                                                     
01001500009000019923015000900019923HKD01BB101 06FL                                                                                       2036-08-13                                                     
01001500009000019931015000900019931HKD0101431 06FL                                                                                       2038-11-10                                                     
01001500009000019931015000900019931HKD0101431 06TLX                                                                                      2038-11-10                                                     
01001500009000019949015000900019949HKD0101431 06FL                                                                                       2038-12-01                                                     
01001500009000019949015000900019949HKD0101431 06TLX                                                                                      2038-12-01                                                     
01001500009000019957015000900019957HKD01C502  06                                                                                                                                                        
01001500009000019965015000900019965HKD01C502  06                                                                                                                                                        
01001500009000019973015000900019973HKD01C502  06                                                                                                                                                        
01001500009000020054015000900020054HKD01S6006 05LCB                                                                                      2049-11-29                                                     
01001500009000020054015000900020054HKD01S6006 05LCS                                                                                      2049-11-29                                                     
01001500009000021000015000900021000HKD01S9002 06FL                                                                                       2039-10-20                                                     
01001500009000021814015000900021814HKD01BB101 06                                                                                                                                                        
01001500009000021961015000900021961HKD01A034  06DL1                                                                                      2040-02-16                                                     
01001500009000021979015000900021979HKD01BA109 06                                                                                                                                                        
0100150132004000110701513240001107 HKD01A001  06                                                                                                                                                        
0100150132004000115801513240001158 HKD0103201 13OD                                                                                       2014-05-05                                                     
0100150132004000880201513240008802 HKD01BA502 15                                                                                                                                                        
0100150132004001236201513240012362 HKD0101454 15OD                                                                                       1996-11-22                                                     
0100150132004001541801513240015418 HKD01A111  15                                                                                                                                                        
0100150132004001637601513240016376 HKD01BA305 06                                                                                                                                                        
0100150132004001656201513240016562 HKD01C501  06                                                                                                                                                        
0100150132004001721601513240017216 HKD0103201 13OD                                                                                       2015-10-14                                                     
0100150132004002022501513240020225 HKD0103201 13OD                                                                                       2014-05-05                                                     
0100150132004002108601513240021086 HKD0101901 13                                                                                                                                                        
0100150132004002126401513240021264 HKD0103201 16OD                                                                                       2014-05-05                                                     
0100150132004002257001513240022570 HKD0103201 13OD                                                                                       2014-05-05                                                     
0100150132004002362301513240023623 HKD01BA208 06OD+FL                                                                                    1987-10-10                                                     
0100150132004002518901513240025189 HKD01BA305 06                                                                                                                                                        
0100150132004002558801513240025588 HKD01BB402 05OD+LC+LCS+TR+SGN+DA+DP+BG+IFL+PLT                                                        1987-10-10                                                     
0100150132004002558801513240025588 HKD01BB402 05DG                                                                                       1987-10-10                                                     
0100150132004002558801513240025588 HKD01BB402 05BP                                                                                       1987-10-10                                                     
0100150132004002558801513240025588 HKD01BB402 05FL                                                                                       2037-12-05                                                     
0100150132004002590101513240025901 HKD01BB402 16OD+FL                                                                                    1992-05-19                                                     
0100150132004002629001513240026290 HKD01BA504 05                                                                                                                                                        
0100150132004002631201513240026312 HKD01BA502 15                                                                                                                                                        
0100150132004002678901513240026789 HKD01BA305 06                                                                                                                                                        
0100150132004002856001513240028560 HKD01BA305 06                                                                                                                                                        
0100150132004003253301513240032533 HKD01BA305 06                                                                                                                                                        
0100150132004003359901513240033599 HKD0101454 15OD                                                                                       2006-08-07                                                     
0100150132004003519201513240035192 HKD0101454 15                                                                                                                                                        
0100150132004003889201513240038892 HKD01BA101 06LC+TR                                                                                    2035-05-03 01                                                  
0100150132004003889201513240038892 HKD01BA101 06IFL                                                                                      2035-05-03                                                     
0100150132004003889201513240038892 HKD01BA101 06DA+DP                                                                                    2047-03-01                                                     
0100150132004003889201513240038892 HKD01BA101 06TLX                                                                                      2048-05-04                                                     
0100150132004004011001513240040110 HKD01BA501 05OD                                                                                       1991-10-29                                                     
0100150132004004066801513240040668 HKD01BA502 06                                                                                                                                                        
0100150132004004436101513240044361 HKD01BA305 05EL                                                                                       1993-08-16                                                     
0100150132004004436101513240044361 HKD01BA305 05OD+TR+IFL                                                                                1993-08-16                                                     
0100150132004004436101513240044361 HKD01BA305 05OD+LC+TR                                                                                 1993-08-16                                                     
0100150132004004436101513240044361 HKD01BA305 05DG                                                                                       1993-08-16                                                     
0100150132004004436101513240044361 HKD01BA305 05BP                                                                                       1993-08-16                                                     
0100150132004004464701513240044647 HKD0101454 15                                                                                                                                                        
0100150132004004498101513240044981 HKD01A494  05IFL+TLX+EL                                                                               2011-05-23 07                                                  
0100150132004004651801513240046518 HKD01C703  05OD+LC+TR                                                                                 2038-02-19                                                     
0100150132004004651801513240046518 HKD01C703  05DA+DP                                                                                    2038-02-19                                                     
0100150132004004651801513240046518 HKD01C703  05FL                                                                                       2038-02-19                                                     
0100150132004004671201513240046712 HKD01BA305 06                                                                                                                                                        
0100150132004004698401513240046984 HKD01BB103 06OD+LC+TR                                                                                 1994-01-14                                                     
0100150132004004815401513240048154 HKD01BA305 06                                                                                                                                                        
0100150132004004838301513240048383 HKD01F1005 05OD+LC+TR                                                                                 1994-08-19 08                                                  
0100150132004004838301513240048383 HKD01F1005 05DL1                                                                                      1994-08-19 08                                                  
0100150132004004838301513240048383 HKD01F1005 05DG                                                                                       1994-08-19 08                                                  
0100150132004004838301513240048383 HKD01F1005 05BP                                                                                       1994-08-19 08                                                  
0100150132004004881201513240048812 HKD01C602  05OD+LC+TR+IFL                                                                             1994-12-02                                                     
0100150132004004881201513240048812 HKD01C602  05BP                                                                                       1994-12-02                                                     
0100150132004004881201513240048812 HKD01C602  05DG                                                                                       1994-12-02                                                     
0100150132004004893601513240048936 HKD01BA999 05                                                                                                                                                        
0100150132004004935501513240049355 HKD01A491  05OD+LC+TR+DA+DP+FL+BG                                                                     1995-05-04Y02Y                                                 
0100150132004004935501513240049355 HKD01A491  05EL                                                                                       2039-07-29 02Y                                                 
0100150132004004935501513240049355 HKD01A491  05IFL                                                                                      2039-07-29 02Y                                                 
0100150132004004935501513240049355 HKD01A491  05TLX                                                                                      2039-07-29 01A                                                 
0100150132004004939801513240049398 HKD01A163  05OD+LC+TR+DA+DP+IFL                                                                       1995-05-20                                                     
0100150132004004939801513240049398 HKD01A163  05DG                                                                                       1995-05-20                                                     
0100150132004004939801513240049398 HKD01A163  05BP                                                                                       1995-05-20                                                     
0100150132004004939801513240049398 HKD01A163  05DA+DP                                                                                    2031-12-01                                                     
0100150132004004943601513240049436 HKD01A163  05OD+LC+TR+IFL                                                                             1995-10-18                                                     
0100150132004004943601513240049436 HKD01A163  05BP                                                                                       1995-10-18                                                     
0100150132004004943601513240049436 HKD01A163  05FL                                                                                       2038-02-19                                                     
0100150132004005063901513240050639 HKD01BB999 05                                                                                                                                                        
0100150132004005072801513240050728 HKD01BA108 06                                                                                                                                                        
0100150132004005125201513240051252 HKD01D2008 05OD+LC+TR                                                                                 1996-02-10Y01                                                  
0100150132004005125201513240051252 HKD01D2008 05DG                                                                                       1996-02-10                                                     
0100150132004005125201513240051252 HKD01D2008 05BP                                                                                       1996-02-10                                                     
0100150132004005175901513240051759 HKD0101454 15OD                                                                                       1996-04-19                                                     
0100150132004005210001513240052100 HKD0101454 15OD                                                                                       1996-08-06                                                     
0100150132004005225901513240052259 HKD01BB402 05OD+LC+TR+DA+DP+IFL                                                                       1996-05-20Y03Y                                                 
0100150132004005225901513240052259 HKD01BB402 05DG                                                                                       1996-05-20Y02                                                  
0100150132004005225901513240052259 HKD01BB402 05BP                                                                                       1996-05-20Y02                                                  
0100150132004005229101513240052291 HKD01C202  05OD+LC+TR+IFL                                                                             1996-08-14                                                     
0100150132004005229101513240052291 HKD01C202  05DG                                                                                       1996-08-14                                                     
0100150132004005229101513240052291 HKD01C202  05BP                                                                                       1996-08-14                                                     
0100150132004005231301513240052313 HKD01C202  05OD+LC+TR+IFL                                                                             1996-08-14                                                     
0100150132004005231301513240052313 HKD01C202  05DG                                                                                       1996-08-14                                                     
0100150132004005231301513240052313 HKD01C202  05BP                                                                                       1996-08-14                                                     
0100150132004005275501513240052755 HKD01C202  05LC+TR+FL+IFL                                                                             1996-10-07                                                     
0100150132004005316601513240053166 HKD01F1008 05OD+LC+TR+IFL                                                                             1997-10-20                                                     
0100150132004005316601513240053166 HKD01F1008 05DG                                                                                       1997-10-20                                                     
0100150132004005316601513240053166 HKD01F1008 05BP                                                                                       1997-10-20                                                     
0100150132004005316601513240053166 HKD01F1008 05FL                                                                                       2041-11-01                                                     
0100150132004005316601513240053166 HKD01F1008 05TLX                                                                                      2041-11-01                                                     
0100150132004005386701513240053867 HKD01BA306 05                                                                                                                                                        
0100150132004005442101513240054421 HKD0101454 15OD                                                                                       1997-05-06                                                     
0100150132004005451001513240054510 HKD01D1001 06FL                                                                                       2024-07-03                                                     
0100150132004005500201513240055002 HKD01BA107 05OD+LC+TR+IFL                                                                             2038-11-01Y07Y                                                 
0100150132004005500201513240055002 HKD01BA107 05DA+DP                                                                                    2038-11-01 03W                                                 
0100150132004005525801513240055258 HKD01BA999 05                                                                                                                                                        
0100150132004005532001513240055320 HKD01A491  05OD+LC+TR+DA+DP+FL+BG                                                                     2000-06-24Y02Y                                                 
0100150132004005532001513240055320 HKD01A491  05EL                                                                                       2039-07-29 02Y                                                 
0100150132004005532001513240055320 HKD01A491  05IFL                                                                                      2039-07-29 02Y                                                 
0100150132004005532001513240055320 HKD01A491  05TLX                                                                                      2039-07-29 01A                                                 
0100150132004005537101513240055371 HKD01C503  05                                                                                                                                                        
0100150132004005552501513240055525 HKD01BA305 06                                                                                                                                                        
0100150132004005594001513240055940 HKD01C604  05DL2                                                                                      1997-10-30                                                     
0100150132004005594001513240055940 HKD01C604  05LC+TR+DP+IFL+PLT                                                                         1997-10-30 05Y                                                 
0100150132004005594001513240055940 HKD01C604  05DG                                                                                       1997-10-30Y02Y                                                 
0100150132004005594001513240055940 HKD01C604  05BP                                                                                       1997-10-30   Y                                                 
0100150132004005598301513240055983 HKD0101454 15                                                                                                                                                        
0100150132004005638601513240056386 HKD01BA999 06                                                                                                                                                        
0100150132004005688201513240056882 HKD0101454 15OD                                                                                       2040-08-01                                                     
0100150132004005689001513240056890 HKD01C207  05                                                                                                                                                        
0100150132004005713701513240057137 HKD01BA502 05                                                                                                                                                        
0100150132004005714501513240057145 HKD01BA208 05OD+LC+TR+DA+DP+IFL+EL                                                                    1998-05-05                                                     
0100150132004005714501513240057145 HKD01BA208 05DL2                                                                                      1998-05-05                                                     
0100150132004005714501513240057145 HKD01BA208 05DG                                                                                       1998-05-05                                                     
0100150132004005714501513240057145 HKD01BA208 05BP                                                                                       1998-05-05                                                     
0100150132004005721801513240057218 HKD01C602  05OD+LC+TR+IFL                                                                             1998-05-25                                                     
0100150132004005721801513240057218 HKD01C602  05BP                                                                                       1998-05-25                                                     
0100150132004005721801513240057218 HKD01C602  05DG                                                                                       1998-05-25                                                     
0100150132004005732301513240057323 HKD01BA208 05OD+LC+TR+DA+DP+IFL+EL                                                                    1998-05-05                                                     
0100150132004005732301513240057323 HKD01BA208 05DL2                                                                                      1998-05-05                                                     
0100150132004005732301513240057323 HKD01BA208 05DG                                                                                       1998-05-05                                                     
0100150132004005732301513240057323 HKD01BA208 05BP                                                                                       1998-05-05                                                     
0100150132004005739001513240057390 HKD0101454 15OD                                                                                       2001-03-19                                                     
0100150132004005830301513240058303 HKD01BB303 05OD+LC+TR+DA+DP+IFL                                                                       1999-04-07                                                     
0100150132004005830301513240058303 HKD01BB303 05DG                                                                                       1999-04-07                                                     
0100150132004005830301513240058303 HKD01BB303 05BP                                                                                       1999-04-07                                                     
0100150132004005851601513240058516 HKD01BB406 06OD+LC+TR                                                                                 2023-06-01                                                     
0100150132004005851601513240058516 HKD01BB406 06FL                                                                                       2023-06-01                                                     
0100150132004005851601513240058516 HKD01BB406 06DL1                                                                                      2023-06-01                                                     
0100150132004005851601513240058516 HKD01BB406 06DA+DP                                                                                    2023-06-01                                                     
0100150132004005851601513240058516 HKD01BB406 06BP                                                                                       2023-06-01                                                     
0100150132004005851601513240058516 HKD01BB406 06DG                                                                                       2023-06-01                                                     
0100150132004005851601513240058516 HKD01BB406 06SL1                                                                                      2023-06-01                                                     
0100150132004005851601513240058516 HKD01BB406 06SL2                                                                                      2023-06-01                                                     
0100150132004005856701513240058567 HKD0101454 15OD                                                                                       2019-08-16                                                     
0100150132004005858301513240058583 HKD01A001  01OD+LC+LCS+TR+BG+IFL                                                                      1999-05-29                                                     
0100150132004005858301513240058583 HKD01A001  01DL1                                                                                      1999-05-29                                                     
0100150132004005858301513240058583 HKD01A001  01DG                                                                                       1999-05-29                                                     
0100150132004005858301513240058583 HKD01A001  01BP                                                                                       1999-05-29                                                     
0100150132004005858301513240058583 HKD01A001  01DP+DAA                                                                                   2033-10-03                                                     
0100150132004005871001513240058710 HKD01A001  05OD+LC+LCS+TR+BG+IFL                                                                      1999-05-29                                                     
0100150132004005871001513240058710 HKD01A001  05DL1                                                                                      1999-05-29                                                     
0100150132004005871001513240058710 HKD01A001  05DG                                                                                       1999-05-29                                                     
0100150132004005871001513240058710 HKD01A001  05BP                                                                                       1999-05-29                                                     
0100150132004005871001513240058710 HKD01A001  05DP+DAA                                                                                   2033-10-03                                                     
0100150132004005882601513240058826 HKD01BB307 06                                                                                                                                                        
0100150132004006127401513240061274 HKD01BB303 06                                                                                                                                                        
0100150132004006175401513240061754 HKD01BB999 05                                                                                                                                                        
0100150132004006358701513240063587 HKD01BB999 05                                                                                                                                                        
0100150132004006444301513240064443 HKD01C409  05DAA                                                                                      2000-11-13 06W                                                 
0100150132004006444301513240064443 HKD01C409  05DPA                                                                                      2000-11-13                                                     
0100150132004006444301513240064443 HKD01C409  05OD+LC+TR+DP+BG+IFL+PLT                                                                   2000-11-13                                                     
0100150132004006444301513240064443 HKD01C409  05DL1                                                                                      2000-11-13                                                     
0100150132004006444301513240064443 HKD01C409  05BP                                                                                       2000-11-13                                                     
0100150132004006444301513240064443 HKD01C409  05DG                                                                                       2000-11-13                                                     
0100150132004006449401513240064494 HKD01C409  05OD+LC+TR+DP+BG+IFL+PLT                                                                   2000-11-13                                                     
0100150132004006449401513240064494 HKD01C409  05DL1                                                                                      2000-11-13                                                     
0100150132004006449401513240064494 HKD01C409  05BP                                                                                       2000-11-13                                                     
0100150132004006449401513240064494 HKD01C409  05DG                                                                                       2000-11-13                                                     
0100150132004006460501513240064605 HKD01A001  01OD+LC+LCS+TR+BG+IFL                                                                      2000-11-29                                                     
0100150132004006460501513240064605 HKD01A001  01DL1                                                                                      2000-11-29                                                     
0100150132004006460501513240064605 HKD01A001  01DG                                                                                       2000-11-29                                                     
0100150132004006460501513240064605 HKD01A001  01BP                                                                                       2000-11-29                                                     
0100150132004006460501513240064605 HKD01A001  01DP+DAA                                                                                   2033-10-03                                                     
0100150132004006486901513240064869 HKD01BB402 05OD+LC+TR                                                                                 2001-04-02                                                     
0100150132004006486901513240064869 HKD01BB402 05BP                                                                                       2001-04-02                                                     
0100150132004006486901513240064869 HKD01BB402 05DG                                                                                       2001-04-02                                                     
0100150132004006489301513240064893 HKD01C411  06OD                                                                                       2027-09-04                                                     
0100150132004006570901513240065709 HKD0101454 15                                                                                                                                                        
0100150132004006666701513240066667 HKD01BB999 05                                                                                                                                                        
0100150132004006688801513240066888 HKD01BA307 05OD+LC+TR+IFL                                                                             2001-06-21 06Y                                                 
0100150132004006688801513240066888 HKD01BA307 05DG                                                                                       2001-06-21                                                     
0100150132004006688801513240066888 HKD01BA307 05BP                                                                                       2001-06-21                                                     
0100150132004006699301513240066993 HKD01A161  05OD+LC+TR+IFL                                                                             2001-11-22                                                     
0100150132004006720501513240067205 HKD0101454 15                                                                                                                                                        
0100150132004006726401513240067264 HKD01BB402 05OD+LC+LCS+TR+SGN+DA+DP+BG+IFL+PLT                                                        2001-12-10                                                     
0100150132004006726401513240067264 HKD01BB402 05DG                                                                                       2001-12-10                                                     
0100150132004006726401513240067264 HKD01BB402 05BP                                                                                       2001-12-10                                                     
0100150132004006726401513240067264 HKD01BB402 05FL                                                                                       2037-12-05                                                     
0100150132004006730201513240067302 HKD01A018  05OD+LC+TR+FL                                                                              2041-03-20Y02                                                  
0100150132004006809001513240068090 HKD01BA503 06                                                                                                                                                        
0100150132004006823601513240068236 HKD01BA999 05                                                                                                                                                        
0100150132004006832501513240068325 HKD0103201 06OD                                                                                       2002-04-11                                                     
0100150132004006898801513240068988 HKD0103201 06OD                                                                                       2003-04-10                                                     
0100150132004006920801513240069208 HKD01C703  06OD                                                                                       2002-09-25                                                     
0100150132004006925901513240069259 HKD01BB202 05OD+LC+TR+IFL                                                                             2004-10-30                                                     
0100150132004006925901513240069259 HKD01BB202 05DG                                                                                       2004-10-30                                                     
0100150132004006925901513240069259 HKD01BB202 05BP                                                                                       2004-10-30                                                     
0100150132004006945301513240069453 HKD01C501  06                                                                                                                                                        
0100150132004006948801513240069488 HKD01C601  05TLX                                                                                      2002-10-21                                                     
0100150132004006948801513240069488 HKD01C601  05OD+LC+TR+BG                                                                              2002-10-21                                                     
0100150132004006966601513240069666 HKD01BA502 05OD                                                                                       2002-07-30                                                     
0100150132004007116401513240071164 HKD0101454 16OD                                                                                       2014-04-01                                                     
0100150132004007120201513240071202 HKD01C999  06                                                                                                                                                        
0100150132004007138501513240071385 HKD01F1007 06TLX                                                                                      2003-10-31                                                     
0100150132004007138501513240071385 HKD01F1007 06DL2                                                                                      2003-10-31                                                     
0100150132004007138501513240071385 HKD01F1007 06OD+LC+TR+IFL                                                                             2003-10-31                                                     
0100150132004007437601513240074376 HKD01C109  05OD+LC+TR+IFL                                                                             2005-01-24                                                     
0100150132004007513501513240075135 HKD01A025  05OD                                                                                       2005-09-22                                                     
0100150132004007584401513240075844 HKD0101454 15OD                                                                                       2005-08-19                                                     
0100150132004007586001513240075860 HKD01C999  05                                                                                                                                                        
0100150132004007597601513240075976 HKD01BB403 06                                                                                                                                                        
0100150132004007603401513240076034 HKD0101454 15                                                                                                                                                        
0100150132004007658101513240076581 HKD01C999  05                                                                                                                                                        
0100150132004007690501513240076905 HKD01BA503 05OD+LC+TR                                                                                 2007-08-08                                                     
0100150132004007701401513240077014 HKD0101454 15                                                                                                                                                        
0100150132004007752901513240077529 HKD0101454 15OD                                                                                       2006-06-20                                                     
0100150132004007762601513240077626 HKD0101454 15OD                                                                                       2006-07-12                                                     
0100150132004007766901513240077669 HKD01BB303 05OD+LC+TR+DA+DP+IFL                                                                       2007-07-06                                                     
0100150132004007766901513240077669 HKD01BB303 05DG                                                                                       2007-07-06                                                     
0100150132004007766901513240077669 HKD01BB303 05BP                                                                                       2007-07-06                                                     
0100150132004007781201513240077812 HKD01BB303 05OD+LC+TR+DA+DP+IFL                                                                       2007-07-05                                                     
0100150132004007781201513240077812 HKD01BB303 05DG                                                                                       2007-07-05                                                     
0100150132004007781201513240077812 HKD01BB303 05BP                                                                                       2007-07-05                                                     
0100150132004007867301513240078673 HKD0101454 15OD                                                                                       2007-05-08                                                     
0100150132004007874601513240078746 HKD0101454 15OD                                                                                       2007-04-03                                                     
0100150132004007882701513240078827 HKD0101454 17                                                                                                                                                        
0100150132004007895901513240078959 HKD01BB201 05                                                                                                                                                        
0100150132004007940801513240079408 HKD0101454 15OD                                                                                       2007-06-13                                                     
0100150132004007947501513240079475 HKD01BA107 06                                                                                                                                                        
0100150132004007980701513240079807 HKD0101454 15OD                                                                                       2007-08-07                                                     
0100150132004008016301513240080163 HKD0101411 17LC+LCB+LCS+LCN                                                                           2007-09-25                                                     
0100150132004008016301513240080163 HKD0101411 17OD                                                                                       2007-09-25                                                     
0100150132004008053801513240080538 HKD01C502  05TLX                                                                                      2008-01-17                                                     
0100150132004008053801513240080538 HKD01C502  05DL1                                                                                      2008-01-17                                                     
0100150132004008053801513240080538 HKD01C502  05OD+LC+TR                                                                                 2008-01-17                                                     
0100150132004008098801513240080988 HKD01BA501 05OD+LC+TR+PLT                                                                             2008-02-28                                                     
0100150132004008098801513240080988 HKD01BA501 05BP                                                                                       2008-02-28                                                     
0100150132004008110001513240081100 HKD0101454 15OD                                                                                       2008-04-22                                                     
0100150132004008114301513240081143 HKD0101454 15OD                                                                                       2008-04-25                                                     
0100150132004008117801513240081178 HKD01BA108 06                                                                                                                                                        
0100150132004008146101513240081461 HKD01D2002 06BG                                                                                       2010-08-19                                                     
0100150132004008146101513240081461 HKD01D2002 06DL1                                                                                      2049-12-10                                                     
0100150132004008159301513240081593 HKD0101454 15OD                                                                                       2008-08-13                                                     
01001501321004013950015132104013950HKD01C501  05DL1                                                                                      2010-09-17                                                     
01001501321004013950015132104013950HKD01C501  05LC+TR+IFL                                                                                2010-09-17                                                     
01001501321004016615015132104016615HKD01C501  05DL1                                                                                      2010-09-17                                                     
01001501321004016615015132104016615HKD01C501  05LC+TR+IFL                                                                                2010-09-17                                                     
0100150132331100480101513233004801 USD0103201 13OD                                                                                       2015-11-21                                                     
0100150132331200001601513233000016 HKD0101454 16OD                                                                                       2049-07-16                                                     
0100150132331200037701513233000377 HKD0103201 13OD                                                                                       2017-02-28                                                     
0100150132331200040701513233000407 HKD0101454 13                                                                                                                                                        
0100150132331200050401513233000504 HKD0101454 16OD                                                                                       2049-06-03                                                     
0100150132331200076801513233000768 HKD0103201 13OD                                                                                       2015-10-14                                                     
0100150132331200107101513233001071 HKD0101454 15OD                                                                                       2010-07-22                                                     
0100150132331200116001513233001160 HKD0101454 15OD                                                                                       2010-08-17                                                     
0100150132331200210801513233002108 HKD01C501  13OD                                                                                       2014-12-15                                                     
0100150132331200317101513233003171 HKD0101454 06                                                                                                                                                        
0100150132331200391001513233003910 HKD01F1001 13OD                                                                                       2035-04-04                                                     
0100150132331200391001513233003910 HKD01F1001 13FL                                                                                       2035-06-18                                                     
0100150132331200453401513233004534 HKD0101454 15OD                                                                                       2010-07-13                                                     
0100150132331200480101513233004801 HKD0102101 13OD                                                                                       2014-08-01                                                     
0100150132331200488701513233004887 HKD0101454 15OD                                                                                       2010-06-25                                                     
0100150132331200490901513233004909 HKD0101454 15OD                                                                                       2010-08-16                                                     
0100150132331200497601513233004976 HKD0101454 15OD                                                                                       2010-07-02                                                     
0100150132331200517401513233005174 HKD01P0401 06FL                                                                                       2035-01-18                                                     
0100150132331200537901513233005379 HKD01C502  06FL                                                                                       2035-01-18                                                     
01001501324004000315015132404000315HKD01C501  05TLX                                                                                      2043-04-22                                                     
01001501324004000349015132404000349HKD01A276  05                                                                                                                                                        
01001501324004000373015132404000373HKD01BA307 05                                                                                                                                                        
01001501324004000381015132404000381HKD01BB302 05                                                                                                                                                        
01001501324004000399015132404000399HKD01F1002 05FL                                                                                       2041-11-01                                                     
01001501324004000399015132404000399HKD01F1002 05TLX                                                                                      2041-11-01                                                     
01001501324004000412015132404000412HKD01BB303 05                                                                                                                                                        
01001501324004000420015132404000420HKD01BB303 05                                                                                                                                                        
01001501324004000462015132404000462HKD01C604  05                                                                                                                                                        
01001501324004000608015132404000608HKD01F1007 06OD+FL+IFL                                                                                2009-05-13                                                     
01001501324004000608015132404000608HKD01F1007 06DG                                                                                       2009-05-13                                                     
01001501324004000608015132404000608HKD01F1007 06BP                                                                                       2009-05-13                                                     
01001501324004000616015132404000616HKD01C501  06                                                                                                                                                        
01001501324004000802015132404000802HKD01C602  06TLX                                                                                      2009-05-29                                                     
01001501324004000802015132404000802HKD01C602  06BG                                                                                       2009-05-29                                                     
01001501324004000844015132404000844HKD01C409  05OD                                                                                       2009-06-03                                                     
01001501324004000925015132404000925HKD01C501  06                                                                                                                                                        
01001501324004000975015132404000975HKD01C502  05                                                                                                                                                        
01001501324004001010015132404001010HKD01C501  05                                                                                                                                                        
01001501324004001028015132404001028HKD01BA503 06OD                                                                                       2009-10-15                                                     
01001501324004001078015132404001078HKD01C402  05OD                                                                                       2027-09-04                                                     
01001501324004001159015132404001159HKD01C403  05OD                                                                                       2027-09-04                                                     
01001501324004001159015132404001159HKD01C403  05FL                                                                                       2027-09-04                                                     
01001501324004001175015132404001175HKD01BA502 05                                                                                                                                                        
01001501324004001183015132404001183HKD01C401  05OD                                                                                       2027-09-04                                                     
01001501324004001329015132404001329HKD01C601  05                                                                                                                                                        
01001501324004001387015132404001387HKD01A491  05OD+LC+TR+DA+DP+FL+BG                                                                     2010-08-16Y02Y                                                 
01001501324004001387015132404001387HKD01A491  05EL                                                                                       2039-07-29 02Y                                                 
01001501324004001387015132404001387HKD01A491  05IFL                                                                                      2039-07-29 02Y                                                 
01001501324004001387015132404001387HKD01A491  05TLX                                                                                      2039-07-29 01A                                                 
01001501324004001492015132404001492HKD01C409  05OD                                                                                       2010-01-15                                                     
01001501324004001573015132404001573HKD01C503  05TLX                                                                                      2010-02-23                                                     
01001501324004001573015132404001573HKD01C503  05DL2                                                                                      2010-02-23                                                     
01001501324004001581015132404001581HKD01C502  05TLX                                                                                      2010-01-26                                                     
01001501324004001604015132404001604HKD01BB202 05                                                                                                                                                        
01001501324004001612015132404001612HKD0103201 17OD                                                                                       2010-02-24                                                     
01001501324004001719015132404001719HKD01BB202 06OD+LC+LCS+TR+BG+IFL                                                                      2011-07-18                                                     
01001501324004001719015132404001719HKD01BB202 06DG                                                                                       2011-07-18                                                     
01001501324004001719015132404001719HKD01BB202 06BP                                                                                       2011-07-18                                                     
01001501324004001808015132404001808HKD01C607  06EL                                                                                       2010-03-25                                                     
01001501324004001808015132404001808HKD01C607  06DL1                                                                                      2010-03-25                                                     
01001501324004001808015132404001808HKD01C607  06DG                                                                                       2010-03-25                                                     
01001501324004001816015132404001816HKD01D2002 06                                                                                                                                                        
01001501324004001858015132404001858HKD01C607  06EL                                                                                       2010-03-25                                                     
01001501324004001858015132404001858HKD01C607  06DL1                                                                                      2010-03-25                                                     
01001501324004001858015132404001858HKD01C607  06DG                                                                                       2010-03-25                                                     
01001501324004001874015132404001874HKD01BB306 06DL2                                                                                      2010-03-25                                                     
01001501324004001874015132404001874HKD01BB306 06DL1                                                                                      2010-03-25                                                     
01001501324004001874015132404001874HKD01BB306 06BP                                                                                       2010-03-25                                                     
01001501324004001947015132404001947CNY01A018  06OD                                                                                       2041-06-01                                                     
01001501324004001971015132404001971HKD01C607  06EL                                                                                       2010-04-09                                                     
01001501324004001971015132404001971HKD01C607  06DL1                                                                                      2010-04-09                                                     
01001501324004001971015132404001971HKD01C607  06DG                                                                                       2010-04-09                                                     
01001501324004002032015132404002032HKD01BB402 05                                                                                                                                                        
